:100000000C9446000C9465000C9465000C946500FB
:100010000C9465000C9465000C9465000C946500CC
:100020000C9465000C9465000C9465000C946500BC
:100030000C9465000C9408010C9465000C94650008
:100040000C9465000C9465000C9465000C9465009C
:100050000C9465000C9465000C9465000C9465008C
:100060000C9465000C9465000C9465000C9465007C
:100070000C9465000C9465000C9465000C9465006C
:100080000C9465000C9465000C94650011241FBE4F
:10009000CFEFD0E4DEBFCDBF11E0A0E0B1E0E6E5F8
:1000A000F5E000E00BBF02C007900D92A231B1074E
:1000B000D9F711E0A2E1B1E001C01D92AA31B10768
:1000C000E1F70E947F020C94A9020C940000CF93E8
:1000D000DF9300D01F92CDB7DEB789837B836A831D
:1000E00089818A3031F48A819B81BC018DE00E9434
:1000F000670080EC90E0FC018081882F90E08072A6
:1001000099270097B1F386EC90E02981FC012083C8
:1001100080E090E00F900F900F90DF91CF910895C5
:10012000CF93DF9300D000D0CDB7DEB769837A8359
:100130008B839C8389819A81AB81BC8180930E01E2
:1001400090930F01A0931001B093110180910E01C3
:1001500090910F01A0911001B091110180931301B2
:1001600090931401A0931501B09316010F900F9076
:100170000F900F90DF91CF910895CF93DF93CDB77C
:10018000DEB781E890E02BE0FC01208388E890E076
:100190002DE730E0FC01318320838FE690E022E000
:1001A000FC01208384E890E0FC01118210828091A0
:1001B0000E0190910F01A0911001B0911101809357
:1001C000130190931401A0931501B09316018FE5CC
:1001D00090E02FE530E0F90120812068FC012083C8
:1001E000DF91CF910895CF93DF93CDB7DEB781E84C
:1001F00090E0FC011082DF91CF910895CF93DF93BF
:10020000CDB7DEB781E080931201DF91CF910895E1
:100210001F920F9200905F000F92112400905B00DC
:100220000F922F933F934F935F936F937F938F938F
:100230009F93AF93BF93EF93FF93CF93DF93CDB78C
:10024000DEB78091130190911401A0911501B09136
:1002500016010197A109B10980931301909314012C
:10026000A0931501B0931601809113019091140190
:10027000A0911501B09116010097A105B10591F467
:100280000E94FE0080910E0190910F01A09110013B
:10029000B09111018093130190931401A093150163
:1002A000B0931601DF91CF91FF91EF91BF91AF9184
:1002B0009F918F917F916F915F914F913F912F917E
:1002C0000F9000925B000F9000925F000F901F90C4
:1002D0001895CF93DF93CDB7DEB780911801909139
:1002E00019018230910509F44CC08330910530F436
:1002F000009769F081309105A1F0D3C0833091055A
:1003000009F462C08430910509F48EC0CAC081E04E
:100310008093170181E090E0909319018093180178
:10032000C5C080E290E0FC018081882F90E0817060
:100330009927009739F482E090E090931901809317
:1003400018011EC080E290E0FC018081882F90E0BF
:10035000817099270097A1F080911701843020F0D7
:1003600081E08093170105C080911701880F809369
:10037000170181E090E0909319018093180196C0D5
:1003800095C080E290E0FC018081882F90E0817030
:100390009927009739F083E090E0909319018093BA
:1003A000180111C080E290E0FC018081882F90E06C
:1003B00081709927009739F482E090E090931901B9
:1003C0008093180173C072C080E290E0FC018081CC
:1003D000882F90E0817099270097A1F480911701F0
:1003E000843020F081E08093170105C080911701CF
:1003F000880F8093170184E090E090931901809317
:10040000180111C080E290E0FC018081882F90E00B
:1004100081709927009739F483E090E09093190157
:100420008093180143C042C080E290E0FC018081CB
:10043000882F90E0817099270097A1F08091170193
:10044000843020F081E08093170105C0809117016E
:10045000880F8093170181E090E0909319018093B9
:1004600018011EC080E290E0FC018081882F90E09E
:10047000817099270097A1F480911701843020F0B2
:1004800081E08093170105C080911701880F809348
:10049000170184E090E0909319018093180106C041
:1004A00005C01092190110921801000080911801E6
:1004B0009091190182309105E1F08330910520F48B
:1004C0008130910541F018C083309105A1F084304E
:1004D000910541F011C085E290E020911701FC01E7
:1004E00020830AC085E290E020911701FC0120835F
:1004F00003C0000001C00000DF91CF910895CF93A9
:10050000DF93CDB7DEB781E290E0FC01108282E29A
:1005100090E02FEFFC01208384E290E02FEFFC01BC
:10052000208385E290E0FC0110826CE271E080E0C3
:1005300090E00E9490000E94BD00109217010E945E
:1005400069010000809112018823E1F310921201E9
:06055000F6CFF894FFCF86
:10055600000000020000000067000000000001002B
:02056600000093
:00000001FF
