:100000000C9446000C9465000C9465000C946500FB
:100010000C9465000C9465000C9465000C946500CC
:100020000C9465000C9465000C9465000C946500BC
:100030000C9465000C9408010C9465000C94650008
:100040000C9465000C9465000C9465000C9465009C
:100050000C9465000C9465000C9465000C9465008C
:100060000C9465000C9465000C9465000C9465007C
:100070000C9465000C9465000C9465000C9465006C
:100080000C9465000C9465000C94650011241FBE4F
:10009000CFEFD0E4DEBFCDBF11E0A0E0B1E0E2E5FC
:1000A000F6E000E00BBF02C007900D92A231B1074D
:1000B000D9F711E0A2E1B1E001C01D92AB31B10767
:1000C000E1F70E94FD020C9427030C940000CF93EB
:1000D000DF9300D01F92CDB7DEB789837B836A831D
:1000E00089818A3031F48A819B81BC018DE00E9434
:1000F000670080EC90E0FC018081882F90E08072A6
:1001000099270097B1F386EC90E02981FC012083C8
:1001100080E090E00F900F900F90DF91CF910895C5
:10012000CF93DF9300D000D0CDB7DEB769837A8359
:100130008B839C8389819A81AB81BC8180930E01E2
:1001400090930F01A0931001B093110180910E01C3
:1001500090910F01A0911001B091110180931301B2
:1001600090931401A0931501B09316010F900F9076
:100170000F900F90DF91CF910895CF93DF93CDB77C
:10018000DEB781E890E02BE0FC01208388E890E076
:100190002DE730E0FC01318320838FE690E022E000
:1001A000FC01208384E890E0FC01118210828091A0
:1001B0000E0190910F01A0911001B0911101809357
:1001C000130190931401A0931501B09316018FE5CC
:1001D00090E02FE530E0F90120812068FC012083C8
:1001E000DF91CF910895CF93DF93CDB7DEB781E84C
:1001F00090E0FC011082DF91CF910895CF93DF93BF
:10020000CDB7DEB781E080931201DF91CF910895E1
:100210001F920F9200905F000F92112400905B00DC
:100220000F922F933F934F935F936F937F938F938F
:100230009F93AF93BF93EF93FF93CF93DF93CDB78C
:10024000DEB78091130190911401A0911501B09136
:1002500016010197A109B10980931301909314012C
:10026000A0931501B0931601809113019091140190
:10027000A0911501B09116010097A105B10591F467
:100280000E94FE0080910E0190910F01A09110013B
:10029000B09111018093130190931401A093150163
:1002A000B0931601DF91CF91FF91EF91BF91AF9184
:1002B0009F918F917F916F915F914F913F912F917E
:1002C0000F9000925B000F9000925F000F901F90C4
:1002D0001895CF93DF93CDB7DEB780911801909139
:1002E00019018230910509F46DC08330910530F415
:1002F000009769F081309105B1F051C183309105CB
:1003000009F483C08430910509F4CEC048C181E06E
:100310008093170110921A0181E090E090931901E7
:100320008093180141C180E290E0FC018081882F18
:1003300090E081709927009739F482E090E09093E3
:100340001901809318013DC080E290E0FC0180819A
:10035000882F90E081709927009799F1809117017B
:10036000843049F48091170186958093170181E0CC
:1003700080931A011FC080911701823081F480910F
:100380001A01882331F08091170186958093170117
:1003900011C080911701880F809317010BC08091C5
:1003A0001701813039F480911701880F809317016C
:1003B00010921A0181E090E0909319018093180146
:1003C000F3C0F2C080E290E0FC018081882F90E0D1
:1003D00081709927009739F083E090E0909319019C
:1003E0008093180111C080E290E0FC018081882F89
:1003F00090E081709927009739F482E090E0909323
:10040000190180931801D0C0CFC080E290E0FC01B8
:100410008081882F90E081709927009799F58091CD
:100420001701843049F48091170186958093170154
:1004300081E080931A011FC080911701823081F4FE
:1004400080911A01882331F080911701869580935D
:10045000170111C080911701880F809317010BC0FD
:1004600080911701813039F480911701880F8093B2
:10047000170110921A0184E090E090931901809383
:10048000180111C080E290E0FC018081882F90E08B
:1004900081709927009739F083E090E090931901DB
:1004A0008093180181C080C080E290E0FC018081CF
:1004B000882F90E081709927009799F1809117011A
:1004C000843049F48091170186958093170181E06B
:1004D00080931A011FC080911701823081F48091AE
:1004E0001A01882331F080911701869580931701B6
:1004F00011C080911701880F809317010BC0809164
:100500001701813039F480911701880F809317010A
:1005100010921A0181E090E09093190180931801E4
:100520003DC080E290E0FC018081882F90E08170E6
:100530009927009799F580911701843049F48091AB
:10054000170186958093170181E080931A011FC0DF
:1005500080911701823081F480911A01882331F053
:100560008091170186958093170111C08091170122
:10057000880F809317010BC080911701813039F4E7
:1005800080911701880F8093170110921A0184E05F
:1005900090E0909319018093180106C005C0109255
:1005A0001901109218010000809118019091190111
:1005B00082309105E1F08330910520F4813091057E
:1005C00041F018C083309105A1F08430910541F0CD
:1005D00011C085E290E020911701FC0120830AC040
:1005E00085E290E020911701FC01208303C0000008
:1005F00001C00000DF91CF910895CF93DF93CDB775
:10060000DEB781E290E0FC01108282E290E02FEF01
:10061000FC01208384E290E02FEFFC01208385E23F
:1006200090E0FC0110826CE271E080E090E00E94BA
:1006300090000E94BD00109217010E946901000005
:10064000809112018823E1F310921201F6CFF89401
:02065000FFCFDA
:10065200000000020000000067000000000001002E
:02066200000096
:00000001FF
